:100000000C9431000C941C070C9445070C946E075B
:100010000C944E000C94060C0C944E000C944E0064
:100020000C944E000C94DD0B0C944E000C94B40B0D
:100030000C944E000C944E000C944E000C944E0008
:100040000C944E000C944E000C944E000C944E00F8
:100050000C944E00C80ACF0AD60ADD0AE40AEB0A5D
:10006000F20A11241FBECFE5D8E0DEBFCDBF10E0FD
:10007000A0E6B0E0E0E1FCE102C005900D92AA3CF0
:10008000B107D9F721E0AAECB0E001C01D92A7307A
:10009000B207E1F70E942F0C0C94060E0C9400009E
:1000A0000E941A010E9410050E94940380E00895A6
:1000B000CF93DF93CDB7DEB762970FB6F894DEBF6C
:1000C0000FBECDBF1A82198260E080E00E94CB0390
:1000D0000E944205CE0101960E9466054AE0BE01DB
:1000E0006D5F7F4F89819A810E94D10DCE01039669
:1000F0000E94BC0389819A818333910580F062E379
:1001000081E00E94320181E08093CA0061E080E0DA
:100110000E94CB0381E790E00E94BC037FC08F3137
:10012000910560F18091CA00833011F0811116C0F1
:100130006EE183E00E94320161E080E00E94CB0327
:100140008BE790E00E94BC0368EE73E080E090E0F3
:100150000E94F40484E08093CA0060C06EE181E0F4
:100160000E94320182E08093CA0061E080E00E9438
:10017000CB0381E890E00E94BC0350C08E31910512
:1001800049F58091CA00811116C06EE183E00E949A
:10019000320161E080E00E94CB038BE790E00E9497
:1001A000BC0368EE73E080E090E00E94F40484E019
:1001B0008093CA0033C060E081E00E94320161E0B8
:1001C00080E00E94CB038BE890E00E94BC03109279
:1001D000CA0024C04E9710F58091CA00811110C04A
:1001E0006EE182E00E94320161E080E00E94CB0378
:1001F00080E990E00E94BC0383E08093CA000EC0B7
:1002000060E081E00E94320161E080E00E94CB0367
:100210008BE890E00E94BC031092CA000E94B803D1
:1002200080E062960FB6F894DEBF0FBECDBFDF91BF
:10023000CF91089581E00E94DA0382E00E94DA0300
:1002400061E081E00E94390461E082E00E943904AB
:1002500060E081E00E949D0460E082E00E949D04D5
:1002600080E00895CF93C62F823031F128F488239F
:1002700049F0813079F056C0833081F1843009F43F
:100280003FC050C081E00E94D70482E00E94D704A2
:1002900080E049C061E081E00E94390461E082E0D1
:1002A0000E9439046C2F81E00E94BA046C2F82E016
:1002B0000E94BA0480E037C062E081E00E94390405
:1002C00062E082E00E9439046C2F81E00E94BA044F
:1002D0006C2F82E00E94BA0480E025C062E081E0D9
:1002E0000E94390461E082E00E9439046C2F81E0B1
:1002F0000E94BA046C2F82E00E94BA0480E013C00E
:1003000061E081E00E94390462E082E00E943904E9
:100310006C2F81E00E94BA046C2F82E00E94BA0424
:1003200080E001C081E0CF91089508950895089577
:100330000895EEEDF0E080819181019691838083B4
:100340004FEF60E881E00E94ED050895CF93DF93C1
:1003500000D0CDB7DEB7809162008330B1F4109247
:10036000DF001092DE006FEF70E082E00E94070B6A
:1003700062E082E00E94A90682E0809362004FEF73
:1003800060E281E00E94ED0546C0823009F043C082
:100390000E94670B1A821982BE016F5F7F4F82E055
:1003A0000E94900B8091DE009091DF008D3D9105C1
:1003B00068F082EB9DE0A0E0B0E08093D6009093DF
:1003C000D700A093D800B093D9001EC08091DE0062
:1003D0009091DF004FEF489F9001499F300D11240D
:1003E00089819A81820F931F929582958F708927B8
:1003F0009F708927A0E0B0E08093D6009093D7004B
:10040000A093D800B093D90081E08093CD004FEF46
:1004100060E40E94ED050F900F90DF91CF91089559
:100420000F931F93CF93DF93CDB7DEB72A970FB605
:10043000F894DEBF0FBECDBF8C01009709F479C0E0
:10044000DC018C91813089F018F08230E1F06FC0CE
:100450001F8285E991E09A8789878091600088876B
:10046000CE0107960E9434061BC081E08F8386E987
:1004700091E09A878987809161008887CE010796ED
:100480000E9434060DC082E08F8386EA91E09A874D
:100490008987809162008887CE0107960E94340682
:1004A000F80181818130C9F018F0823059F13FC0E4
:1004B000E081F0E0E052FF4F108219828091E0006D
:1004C0008A8381E08B838C8387E991E09E838D838F
:1004D000CE0101960E94E80928C0E081F0E0E052D8
:1004E000FF4F81E0808389839091E1009A838B8321
:1004F0008C8388E991E09E838D83CE0101960E94D2
:10050000E80913C0E081F0E0E052FF4F82E0808311
:1005100089831A8281E08B838C8389E991E09E83B1
:100520008D83CE0101960E94E80980E003C081E03E
:1005300001C081E02A960FB6F894DEBF0FBECDBF92
:10054000DF91CF911F910F910895CF93DF93EA012F
:100550008230F1F46130E1F463E00E94A90683E0A7
:100560008093620082E00E940407EDECF0E080815D
:100570008823E9F38091D6009091D700A091D8000C
:10058000B091D90088839983AA83BB831092CD0050
:1005900080E0DF91CF9108954FEF68E080E00E9406
:1005A000ED0561E070E080E090E00E94F40440E03E
:1005B00068E080E00E94ED0561E070E080E090E09E
:1005C0000E94F4040895CF93DF9300D01F92CDB71B
:1005D000DEB719821A821B828FEF8B8382E08A83B7
:1005E000CE0101960E948B05198284E08A83CE0198
:1005F00001960E948B05198288E08A83CE010196BC
:100600000E948B05198280E18A83CE0101960E94A7
:100610008B05198280E28A83CE0101960E948B05A8
:10062000198280E48A83CE0101960E948B0519828B
:1006300080E88A83CE0101960E948B050F900F906F
:100640000F90DF91CF910895CF93C82FC295CF70AF
:10065000C0FF06C04FEF60E180E00E94ED0505C0DD
:1006600040E060E180E00E94ED05C1FF06C04FEF71
:1006700060E280E00E94ED0505C040E060E280E0BD
:100680000E94ED05C2FF06C04FEF60E480E00E94CB
:10069000ED0505C040E060E480E00E94ED05C87013
:1006A00031F04FEF60E880E00E94ED0505C040E0CA
:1006B00060E880E00E94ED05CF910895CF93C82FA8
:1006C0004FEF62E080E00E94ED058C2F0E94240332
:1006D0000E94CC028C2F8295807F0E9424030E946E
:1006E000CC0261E070E080E090E00E94F404CF91E1
:1006F0000895CF93C82F40E062E080E00E94ED05AE
:100700008C2F0E9424030E94CC028C2F8295807F24
:100710000E9424030E94CC0261E070E080E090E03F
:100720000E94F404CF9108950E94E30264E170E016
:1007300080E090E00E94F40483E30E94790382E366
:100740000E94790388E20E9479038EE00E94790377
:1007500081E00E9479036AE070E080E090E00E940E
:10076000F40486E00E9479038CE00E9479030895E6
:1007700081E00E9479030895CF93DF93EC01888193
:10078000882331F021960E945E0389918111FBCF6D
:10079000DF91CF910895623031F0633031F06130F4
:1007A00029F4805C03C08C5E01C08C5A80680E9472
:1007B000790308950F931F93CF93DF9300D000D058
:1007C0001F92CDB7DEB7813019F0823021F146C0DB
:1007D00013E0198380E18A830FEF0B83CE0101962A
:1007E0000E948B05198384E08A830B83CE010196D6
:1007F0000E948B05198388E08A830B83CE010196C2
:100800000E948B0581E08C831D83CE0104960E949B
:10081000970780E024C013E0198380E28A830FEFFA
:100820000B83CE0101960E948B05198380E48A8395
:100830000B83CE0101960E948B05198380E88A8381
:100840000B83CE0101960E948B0582E08C831D8371
:10085000CE0104960E94970780E001C081E00F90CE
:100860000F900F900F900F90DF91CF911F910F91EC
:100870000895813019F0823081F15DC0613089F0D6
:1008800018F06230E1F057C040E064E083E00E947D
:10089000ED0540E068E083E00E94ED051092E30082
:1008A0004AC04FEF64E083E00E94ED0540E068E05D
:1008B00083E00E94ED0581E08093E3003CC040E0CE
:1008C00064E083E00E94ED054FEF68E083E00E9462
:1008D000ED0582E08093E3002EC0613089F018F0CE
:1008E0006230E1F028C040E060E483E00E94ED0562
:1008F00040E060E883E00E94ED051092E4001BC038
:100900004FEF60E483E00E94ED0540E060E883E0A3
:100910000E94ED0581E08093E4000DC040E060E4BA
:1009200083E00E94ED054FEF60E883E00E94ED0553
:1009300082E08093E40081E008956536B8F4813068
:1009400019F0823051F014C028EE33E040E050E05E
:1009500081E00E94590880E0089528EE33E040E0ED
:1009600050E082E00E94590880E0089581E00895F7
:1009700081E008956536B8F4813019F0823051F085
:1009800014C028EE33E040E050E081E00E941709F7
:1009900080E0089528EE33E040E050E082E00E94DD
:1009A000170980E0089581E0089581E0089581307D
:1009B00019F0823061F016C081E00E94BC0960E04D
:1009C00081E00E9439041092E30080E0089582E003
:1009D0000E94BC0960E082E00E9439041092E400A9
:1009E00080E0089581E008950F931F939B01AC016F
:1009F000AAE2B3E00E94A30D61157105810591057E
:100A000061F000E010E098010F5F1F4F2F4F3F4F44
:100A10000617170728073907B9F71F910F9108958F
:100A20001F93CF93DF93CDB7DEB728970FB6F89417
:100A3000DEBF0FBECDBF81E089838A838FEF8B83BA
:100A4000CE0101960E948B05813089F081E08C8374
:100A500012E01D831E82CE0104960E948B051F8327
:100A60001887CE0107960E94100280E001C081E045
:100A700028960FB6F894DEBF0FBECDBFDF91CF91A1
:100A80001F910895CF93DF9300D0CDB7DEB74FEF1E
:100A900061E081E00E94ED051A82198289819A81C4
:100AA0000A974CF489819A8101969A838983898176
:100AB0009A810A97BCF340E061E081E00E94ED0575
:100AC00080E00F900F90DF91CF910895CF93DF9347
:100AD000EC010097E1F045EE50E061E082E00E9419
:100AE000A5026091E5007091E6008091E700909189
:100AF000E8000E94C90C2DEC3CEC48E652E40E9450
:100B0000350C0E949D0C7983688380E001C081E0F0
:100B1000DF91CF910895009709F457C0FC0122811D
:100B2000222319F02F3F59F152C0FC0120812130BE
:100B300071F028F0223099F02330C9F04AC02AB36E
:100B4000FC018181809582238ABB80E0089527B3D0
:100B5000FC0181818095822387BB80E0089524B3C6
:100B6000FC0181818095822384BB80E0089521B3BC
:100B7000FC0181818095822381BB80E00895FC0186
:100B80002081213069F028F0223089F02330B1F043
:100B900022C02AB3FC018181822B8ABB80E00895A8
:100BA00027B3FC018181822B87BB80E0089524B3A9
:100BB000FC018181822B84BB80E0089521B3FC017C
:100BC0008181822B81BB80E0089581E0089581E0DE
:100BD000089581E0089581E00895442319F04F3F7E
:100BE00009F13CC0813061F028F0823079F0833027
:100BF00099F036C08BB3609568236BBB80E0089595
:100C000088B36095682368BB80E0089585B36095DC
:100C1000682365BB80E0089582B36095682362BB5A
:100C200080E00895813059F028F0823069F08330F7
:100C300081F018C08BB3682B6BBB80E0089588B33C
:100C4000682B68BB80E0089585B3682B65BB80E0A6
:100C5000089582B3682B62BB80E0089581E0089517
:100C600081E0089581E00895FC01009709F467C0D0
:100C70008081813049F120F0823009F449C061C09F
:100C800082819381009721F09093EA008093E9009C
:100C90008181813051F028F0823061F0833079F029
:100CA00052C085B785BF80E0089585B7816085BF54
:100CB00080E0089585B7826085BF80E0089585B79C
:100CC000836085BF80E0089582819381009721F041
:100CD0009093EC008093EB008181813051F028F0FB
:100CE000823061F0833079F030C085B785BF80E015
:100CF000089585B7846085BF80E0089585B78860D2
:100D000085BF80E0089585B78C6085BF80E0089539
:100D100082819381009721F09093EE008093ED0003
:100D20008181823019F0833029F011C084B784BFEB
:100D300080E0089584B7806484BF80E0089581E0F6
:100D4000089581E0089581E0089581E0089581E0AB
:100D50000895813011F118F08230E9F14DC085B766
:100D60008C7F85BF613051F028F0623061F06330D4
:100D700079F044C085B785BF80E0089585B781606C
:100D800085BF80E0089585B7826085BF80E00895C3
:100D900085B7836085BF80E0089585B7837F85BF71
:100DA000613051F028F0623061F0633079F028C092
:100DB00085B785BF80E0089585B7846085BF80E0F2
:100DC000089585B7886085BF80E0089585B78C60F9
:100DD00085BF80E0089584B78F7B84BF623019F0AF
:100DE000633029F00FC084B784BF80E0089584B7D2
:100DF000806484BF80E0089581E0089581E00895D3
:100E000081E0089581E008957894813049F018F0E8
:100E1000823059F00FC08BB780648BBF80E008959B
:100E20008BB780688BBF80E008958BB780628BBFE3
:100E300080E0089581E008951F920F920FB60F92FF
:100E400011242F933F934F935F936F937F938F93CF
:100E50009F93AF93BF93EF93FF93E091E900F091DD
:100E6000EA00309709F00995FF91EF91BF91AF919A
:100E70009F918F917F916F915F914F913F912F91B2
:100E80000F900FBE0F901F9018951F920F920FB6E4
:100E90000F9211242F933F934F935F936F937F9300
:100EA0008F939F93AF93BF93EF93FF93E091EB00EA
:100EB000F091EC00309709F00995FF91EF91BF9107
:100EC000AF919F918F917F916F915F914F913F91E2
:100ED0002F910F900FBE0F901F9018951F920F9299
:100EE0000FB60F9211242F933F934F935F936F93FD
:100EF0007F938F939F93AF93BF93EF93FF93E09173
:100F0000ED00F091EE00309709F00995FF91EF9117
:100F1000BF91AF919F918F917F916F915F914F9111
:100F20003F912F910F900FBE0F901F901895CF9368
:100F3000DF9300D01F92CDB7DEB7009709F4ACC0A5
:100F4000FC012181273008F0A9C030E0F901ED5300
:100F5000FF4F4081411106C0FC012081233009F080
:100F60009FC076C0FC014081413061F138F04230D1
:100F700009F44BC0433009F095C06AC013BEFC01B0
:100F8000818190E0FC01ED53FF4F20812093F70019
:100F9000FC01EE0FFF1FE955FF4F80819181909377
:100FA000F0008093EF0083B7806683BF81E0898380
:100FB00088E08A838FEF8B83CE0101960E948B0598
:100FC00080E071C0F901E454FF4F80818093F80004
:100FD000F901EE0FFF1FE756FF4F8081918190933B
:100FE000F2008093F1008EB59FB5806190689FBD3F
:100FF0008EBD83E0898380E28A838FEF8B83CE016D
:1010000001960E948B0580E04EC0F901E454FF4F29
:1010100080818093F900F901EE0FFF1FE756FF4F23
:10102000808191819093F4008093F3008EB59FB5F9
:10103000806190629FBD8EBD83E0898380E18A8359
:101040008FEF8B83CE0101960E948B0580E02BC031
:1010500015BCFC01818190E0FC01EB54FF4F208125
:101060002093FA00FC01EE0FFF1FED59FF4F808126
:10107000918190936A008093690085B5806685BDF3
:1010800083E0898380E88A838FEF8B83CE0101968A
:101090000E948B0580E007C081E005C081E003C0AD
:1010A00081E001C080E00F900F900F90DF91CF9111
:1010B00008958F929F92AF92BF92CF92DF92EF925C
:1010C000FF92CF93C62F69017A018130C1F038F0C9
:1010D000823009F444C0833009F48EC09DC02FEFE4
:1010E000629FC001112464E670E00E94670D6CBF2E
:1010F00093B78091F700892B83BF80E08EC0209149
:10110000F1003091F200C901A0E0B0E09C01AD0116
:10111000220F331F441F551FC701B6010E94570DF0
:101120009B01AC0160E074E284EF90E00E947B0DD3
:1011300037BD26BDAC2FB0E00E94A30D24E630E001
:1011400040E050E00E947B0D3BBD2ABD8EB59FB5AF
:101150002091F800822B9FBD8EBD80E05EC0209163
:10116000F1003091F200C901A0E0B0E09C01AD01B6
:10117000220F331F441F551FC701B6010E94570D90
:101180009B01AC010F2E812CF4E29F2EF4EFAF2EC9
:10119000B12CF02DC501B4010E947B0D37BD26BDD9
:1011A0002091F3003091F400C901A0E0B0E09C016F
:1011B000AD01220F331F441F551FC701B6010E9406
:1011C000570D9B01AC01C501B4010E947B0DAC2FF2
:1011D000B0E00E94A30D24E630E040E050E00E9421
:1011E0007B0D39BD28BD8EB59FB52091F900822BAE
:1011F0009FBD8EBD80E011C02FEF629FC001112402
:1012000064E670E00E94670D6CBF95B58091FA00AE
:10121000892B85BD80E001C081E0CF91FF90EF90E8
:10122000DF90CF90BF90AF909F908F9008958F9256
:101230009F92AF92BF92CF92DF92EF92FF92CF93A5
:10124000C62F69017A01813091F030F08230C1F10E
:10125000833009F47BC085C02FEF629FC001112449
:1012600064E670E00E94670D6CBF80E07BC0209157
:10127000F1003091F200C901A0E0B0E09C01AD01A5
:10128000220F331F441F551FC701B6010E94570D7F
:101290009B01AC0160E074E284EF90E00E947B0D62
:1012A00037BD26BDAC2FB0E00E94A30D24E630E090
:1012B00040E050E00E947B0D3BBD2ABD80E052C063
:1012C0002091F1003091F200C901A0E0B0E09C0152
:1012D000AD01220F331F441F551FC701B6010E94E5
:1012E000570D9B01AC010F2E812CF4E29F2EF4EFE1
:1012F000AF2EB12CF02DC501B4010E947B0D37BD7E
:1013000026BD2091F3003091F400C901A0E0B0E0C7
:101310009C01AD01220F331F441F551FC701B601A9
:101320000E94570D9B01AC01C501B4010E947B0DC9
:10133000AC2FB0E00E94A30D24E630E040E050E086
:101340000E947B0D39BD28BD80E00CC02FEF629F4D
:10135000C001112464E670E00E94670D6CBF80E05C
:1013600001C081E0CF91FF90EF90DF90CF90BF90D0
:10137000AF909F908F900895813061F028F0823077
:10138000A1F08330E9F022C01CBE83B7887F83BF01
:1013900080E0089517BC16BC1BBC1ABC8EB59FB567
:1013A000887F9FBD8EBD80E0089517BC16BC19BC18
:1013B00018BC8EB59FB5887F9FBD8EBD80E0089517
:1013C0001CBE85B5887F85BD80E0089581E00895C5
:1013D000CF93DF93EC018881813009F460C020F065
:1013E000823009F4B8C00FC18C819D81009721F033
:1013F0009093FC008093FB0089818130B1F118F05B
:101400008230D1F100C113BE8B818430C9F028F441
:10141000813041F0823069F0F6C08630C1F087300B
:10142000E9F0F1C0A881B0E0AC5FBE4F81E08C93E1
:1014300029C0A881B0E0AC5FBE4F82E08C9322C08F
:10144000A881B0E0AC5FBE4F83E08C931BC0A88145
:10145000B0E0AC5FBE4F84E08C9314C0A881B0E0D4
:10146000AC5FBE4F85E08C930DC0A881B0E0AC5F4F
:10147000BE4F87E08C9306C0A881B0E0AC5FBE4F42
:1014800086E08C938A81882339F0813009F0BBC0D3
:1014900089B7816089BFB7C089B789BFB4C08C8163
:1014A0009D81009721F09093FE008093FD0089813B
:1014B0008130B9F118F08230D9F1A5C01FBC1EBC33
:1014C0008B818430C9F028F4813041F0823069F09A
:1014D0009AC08630C1F08730E9F095C0A881B0E0AD
:1014E000AC5FBE4F81E08C9329C0A881B0E0AC5FB7
:1014F000BE4F82E08C9322C0A881B0E0AC5FBE4FAB
:1015000083E08C931BC0A881B0E0AC5FBE4F84E049
:101510008C9314C0A881B0E0AC5FBE4F85E08C9383
:101520000DC0A881B0E0AC5FBE4F87E08C9306C0D1
:10153000A881B0E0AC5FBE4F86E08C938A8188239F
:1015400039F0813009F05FC089B7846089BF5BC022
:1015500089B789BF58C08C819D81009721F09093F5
:1015600000018093FF008981882321F0833008F0F7
:101570004AC03EC015BC4B8150E041505109473034
:10158000510508F040C0465D5F4FFA010C949D0D77
:10159000A881B0E0AC5FBE4F81E08C9329C0A881E8
:1015A000B0E0AC5FBE4F82E08C9322C0A881B0E077
:1015B000AC5FBE4F83E08C931BC0A881B0E0AC5FF2
:1015C000BE4F84E08C9314C0A881B0E0AC5FBE4FE6
:1015D00085E08C930DC0A881B0E0AC5FBE4F86E083
:1015E0008C9306C0A881B0E0AC5FBE4F87E08C93BF
:1015F0008A81882331F0813031F489B7806489BFD2
:1016000002C089B789BF81E0DF91CF910895813011
:1016100001F118F08230D1F14EC06F3F710511F029
:1016200008F04BC090910401992309F448C09650EA
:10163000923038F412BE23B790910401922B93BFDD
:1016400032C0609562BF23B790910401922B93BF83
:101650002AC0909105019923A1F19650923050F43F
:101660001DBC1CBC2EB53FB590910501292B3FBD7B
:101670002EBD19C0609570957DBD6CBD2EB53FB572
:1016800090910501292B3FBD2EBD0DC06F3F710507
:1016900009F0C8F4909106019923B9F0609564BDF2
:1016A00025B5922B95BDE82FF0E0EF5FFE4F81E06E
:1016B000808380E0089581E0089581E0089581E0CD
:1016C000089581E0089581E0089581E008958330D0
:1016D00008F5282F30E0F901EF5FFE4F908191303F
:1016E000D9F4813041F018F0823059F017C083B737
:1016F000887F83BF09C08EB59FB5887F9FBD8EBD93
:1017000003C085B5887F85BDF901EF5FFE4F10826C
:1017100080E0089581E0089581E0089581E00895D2
:10172000FB01118210828330D8F4813059F018F017
:10173000823079F017C082B790E0FB0191838083FB
:1017400080E008958CB59DB5FB019183808380E096
:10175000089584B590E0FB019183808380E0089533
:1017600081E0089581E008951F920F920FB60F92C5
:1017700011242F933F934F935F936F937F938F9396
:101780009F93AF93BF93EF93FF93E091FB00F09192
:10179000FC00309709F00995FF91EF91BF91AF914F
:1017A0009F918F917F916F915F914F913F912F9179
:1017B0000F900FBE0F901F9018951F920F920FB6AB
:1017C0000F9211242F933F934F935F936F937F93C7
:1017D0008F939F93AF93BF93EF93FF93E091FD009F
:1017E000F091FE00309709F00995FF91EF91BF91BC
:1017F000AF919F918F917F916F915F914F913F91A9
:101800002F910F900FBE0F901F9018951F920F925F
:101810000FB60F9211242F933F934F935F936F93C3
:101820007F938F939F93AF93BF93EF93FF93E09139
:10183000FF00F0910001309709F00995FF91EF91B9
:10184000BF91AF919F918F917F916F915F914F91D8
:101850003F912F910F900FBE0F901F901895789485
:101860000E9450000E945800FDCF0CD0E6C0DED090
:1018700040F0D5D030F021F45F3F19F0C7C05111CE
:1018800010C1CAC0EBD098F39923C9F35523B1F323
:10189000951B550BBB27AA2762177307840738F0DF
:1018A0009F5F5F4F220F331F441FAA1FA9F333D03E
:1018B0000E2E3AF0E0E830D091505040E695001CF2
:1018C000CAF729D0FE2F27D0660F771F881FBB1FAE
:1018D000261737074807AB07B0E809F0BB0B802D88
:1018E000BF01FF2793585F4F2AF09E3F510568F0D4
:1018F0008DC0D7C05F3FECF3983EDCF386957795BB
:101900006795B795F7959F5FC9F7880F911D9695D5
:10191000879597F90895E1E0660F771F881FBB1F31
:10192000621773078407BA0720F0621B730B840BDE
:10193000BA0BEE1F88F7E095089598D088F09F576E
:1019400090F0B92F9927B751A0F0D1F0660F771F0B
:10195000881F991F1AF0BA95C9F712C0B13081F0EB
:101960009FD0B1E008959CC0672F782F8827B85F7B
:1019700039F0B93FCCF3869577956795B395D9F74C
:101980003EF490958095709561957F4F8F4F9F4F56
:101990000895E89409C097FB3EF490958095709562
:1019A00061957F4F8F4F9F4F9923A9F0F92F96E9AB
:1019B000BB279395F695879577956795B795F11120
:1019C000F8CFFAF4BB0F11F460FF1BC06F5F7F4FBD
:1019D0008F4F9F4F16C0882311F096E911C07723CF
:1019E00021F09EE8872F762F05C0662371F096E8D8
:1019F000862F70E060E02AF09A95660F771F881FA7
:101A0000DAF7880F9695879597F9089597F99F6764
:101A100080E870E060E008959FEF80EC0895002476
:101A20000A941616170618060906089500240A9443
:101A300012161306140605060895092E0394000CC9
:101A400011F4882352F0BB0F40F4BF2B11F460FF58
:101A500004C06F5F7F4F8F4F9F4F089557FD905881
:101A6000440F551F59F05F3F71F04795880F97FB62
:101A7000991F61F09F3F79F087950895121613061C
:101A80001406551FF2CF4695F1DF08C0161617064B
:101A90001806991FF1CF8695710561050894089580
:101AA000E894BB2766277727CB0197F90895DB01D8
:101AB0008F939F930E94A30DBF91AF91A29F800D22
:101AC000911DA39F900DB29F900D1124089597FB37
:101AD000072E16F4009407D077FD09D00E94AE0DB2
:101AE00007FC05D03EF4909581959F4F0895709521
:101AF00061957F4F0895A1E21A2EAA1BBB1BFD0121
:101B00000DC0AA1FBB1FEE1FFF1FA217B307E407DC
:101B1000F50720F0A21BB30BE40BF50B661F771F34
:101B2000881F991F1A9469F7609570958095909514
:101B30009B01AC01BD01CF010895EE0FFF1F059081
:101B4000F491E02D09940E94C20DA59F900DB49FC1
:101B5000900DA49F800D911D11240895AA1BBB1BFD
:101B600051E107C0AA1FBB1FA617B70710F0A61B9D
:101B7000B70B881F991F5A95A9F780959095BC01BE
:101B8000CD010895A29FB001B39FC001A39F700D26
:101B9000811D1124911DB29F700D811D1124911D75
:101BA0000895BB274A3031F4992322F4BDE2909581
:101BB00081959F4F0C94DD0DBB27FB015527AA276C
:101BC000880F991FAA1FA41710F0A41B83955051CA
:101BD000B9F7A05DAA3308F0A95DA193009779F742
:101BE000B111B1931192CB010C94F60DDC01FC0103
:101BF000672F71917723E1F7329704C07C916D9341
:101C000070836291AE17BF07C8F30895F894FFCFB1
:101C100000000201000800200040008000000100D8
:101C200004464F52574152443830005249474854B5
:101C300000464F525741524433300053544F5000E6
:101C40004241434B5741524400010008000000400C
:101C50000000000001000401000800000040000036
:101C6000000001000401020304050607010200034D
:0A1C70000004050102000300040552
:00000001FF
